{"abi":[{"type":"constructor","inputs":[{"name":"_initialAuthority","type":"address","internalType":"address"},{"name":"_xoMarketsAddress","type":"address","internalType":"address"},{"name":"_xOutcomesAddress","type":"address","internalType":"address"},{"name":"_minimumInitialCollateral","type":"uint256","internalType":"uint256"},{"name":"_protocolFeeBps","type":"uint256","internalType":"uint256"},{"name":"_insuranceAddress","type":"address","internalType":"address"},{"name":"_allowedCollateralTokens","type":"address[]","internalType":"address[]"}],"stateMutability":"nonpayable"},{"type":"function","name":"ALPHA","inputs":[],"outputs":[{"name":"","type":"uint256","internalType":"uint256"}],"stateMutability":"view"},{"type":"function","name":"LARGE_NUMBER","inputs":[],"outputs":[{"name":"","type":"uint256","internalType":"uint256"}],"stateMutability":"view"},{"type":"function","name":"MAX_BPS","inputs":[],"outputs":[{"name":"","type":"uint256","internalType":"uint256"}],"stateMutability":"view"},{"type":"function","name":"RESOLUTION_PERIOD","inputs":[],"outputs":[{"name":"","type":"uint256","internalType":"uint256"}],"stateMutability":"view"},{"type":"function","name":"authority","inputs":[],"outputs":[{"name":"","type":"address","internalType":"address"}],"stateMutability":"view"},{"type":"function","name":"buy","inputs":[{"name":"_marketId","type":"uint256","internalType":"uint256"},{"name":"_outcome","type":"uint8","internalType":"uint8"},{"name":"_amount","type":"uint256","internalType":"uint256"},{"name":"_maxCost","type":"uint256","internalType":"uint256"}],"outputs":[],"stateMutability":"nonpayable"},{"type":"function","name":"createMarket","inputs":[{"name":"_startsAt","type":"uint40","internalType":"uint40"},{"name":"_expiresAt","type":"uint40","internalType":"uint40"},{"name":"_collateralToken","type":"address","internalType":"address"},{"name":"_initialCollateral","type":"uint256","internalType":"uint256"},{"name":"_creatorFeeBps","type":"uint16","internalType":"uint16"},{"name":"_outcomeCount","type":"uint8","internalType":"uint8"},{"name":"_resolver","type":"address","internalType":"address"},{"name":"_metaDataURI","type":"string","internalType":"string"}],"outputs":[],"stateMutability":"nonpayable"},{"type":"function","name":"getCollateralTokenAllowed","inputs":[{"name":"token","type":"address","internalType":"address"}],"outputs":[{"name":"","type":"bool","internalType":"bool"}],"stateMutability":"view"},{"type":"function","name":"getExtendedMarket","inputs":[{"name":"_marketId","type":"uint256","internalType":"uint256"}],"outputs":[{"name":"","type":"tuple","internalType":"struct ExtendedMarket","components":[{"name":"market","type":"tuple","internalType":"struct Market","components":[{"name":"id","type":"uint128","internalType":"uint128"},{"name":"expiresAt","type":"uint40","internalType":"uint40"},{"name":"startsAt","type":"uint40","internalType":"uint40"},{"name":"createdAt","type":"uint40","internalType":"uint40"},{"name":"resolvedAt","type":"uint40","internalType":"uint40"},{"name":"winningOutcome","type":"uint128","internalType":"uint128"},{"name":"resolver","type":"address","internalType":"address"},{"name":"creatorFeeBps","type":"uint16","internalType":"uint16"},{"name":"outcomeTokenStartIndex","type":"uint256","internalType":"uint256"},{"name":"outcomeCount","type":"uint8","internalType":"uint8"},{"name":"collateralToken","type":"address","internalType":"address"},{"name":"collateralAmount","type":"uint256","internalType":"uint256"},{"name":"status","type":"uint8","internalType":"enum MarketStatus"}]},{"name":"collateralAmounts","type":"uint256[]","internalType":"uint256[]"},{"name":"outcomePrices","type":"uint256[]","internalType":"uint256[]"}]}],"stateMutability":"view"},{"type":"function","name":"getInsuranceAddress","inputs":[],"outputs":[{"name":"","type":"address","internalType":"address"}],"stateMutability":"view"},{"type":"function","name":"getMarket","inputs":[{"name":"_marketId","type":"uint256","internalType":"uint256"}],"outputs":[{"name":"","type":"tuple","internalType":"struct Market","components":[{"name":"id","type":"uint128","internalType":"uint128"},{"name":"expiresAt","type":"uint40","internalType":"uint40"},{"name":"startsAt","type":"uint40","internalType":"uint40"},{"name":"createdAt","type":"uint40","internalType":"uint40"},{"name":"resolvedAt","type":"uint40","internalType":"uint40"},{"name":"winningOutcome","type":"uint128","internalType":"uint128"},{"name":"resolver","type":"address","internalType":"address"},{"name":"creatorFeeBps","type":"uint16","internalType":"uint16"},{"name":"outcomeTokenStartIndex","type":"uint256","internalType":"uint256"},{"name":"outcomeCount","type":"uint8","internalType":"uint8"},{"name":"collateralToken","type":"address","internalType":"address"},{"name":"collateralAmount","type":"uint256","internalType":"uint256"},{"name":"status","type":"uint8","internalType":"enum MarketStatus"}]}],"stateMutability":"view"},{"type":"function","name":"getMarketCollateral","inputs":[{"name":"marketId","type":"uint256","internalType":"uint256"}],"outputs":[{"name":"","type":"uint256","internalType":"uint256"}],"stateMutability":"view"},{"type":"function","name":"getMarketOutcomeTokenAmount","inputs":[{"name":"marketId","type":"uint256","internalType":"uint256"},{"name":"outcome","type":"uint8","internalType":"uint8"}],"outputs":[{"name":"","type":"uint256","internalType":"uint256"}],"stateMutability":"view"},{"type":"function","name":"getMarketOutcomeTokenIndex","inputs":[{"name":"marketId","type":"uint256","internalType":"uint256"},{"name":"outcome","type":"uint8","internalType":"uint8"}],"outputs":[{"name":"","type":"uint256","internalType":"uint256"}],"stateMutability":"view"},{"type":"function","name":"getMarketResolver","inputs":[{"name":"_resolver","type":"address","internalType":"address"}],"outputs":[{"name":"","type":"tuple","internalType":"struct MarketResolver","components":[{"name":"isPublicResolver","type":"bool","internalType":"bool"},{"name":"feeBps","type":"uint16","internalType":"uint16"}]}],"stateMutability":"view"},{"type":"function","name":"getMinimumInitialCollateral","inputs":[],"outputs":[{"name":"","type":"uint256","internalType":"uint256"}],"stateMutability":"view"},{"type":"function","name":"getOutcomePurchaseCost","inputs":[{"name":"_marketId","type":"uint256","internalType":"uint256"},{"name":"_outcome","type":"uint8","internalType":"uint8"},{"name":"_amount","type":"uint256","internalType":"uint256"}],"outputs":[{"name":"","type":"uint256","internalType":"uint256"}],"stateMutability":"view"},{"type":"function","name":"getOutcomeSaleReturn","inputs":[{"name":"_marketId","type":"uint256","internalType":"uint256"},{"name":"_outcome","type":"uint8","internalType":"uint8"},{"name":"_amount","type":"uint256","internalType":"uint256"}],"outputs":[{"name":"","type":"uint256","internalType":"uint256"}],"stateMutability":"view"},{"type":"function","name":"getPrice","inputs":[{"name":"marketId","type":"uint256","internalType":"uint256"},{"name":"_outcome","type":"uint8","internalType":"uint8"}],"outputs":[{"name":"","type":"uint256","internalType":"uint256"}],"stateMutability":"view"},{"type":"function","name":"getPrices","inputs":[{"name":"marketId","type":"uint256","internalType":"uint256"}],"outputs":[{"name":"","type":"uint256[]","internalType":"uint256[]"}],"stateMutability":"view"},{"type":"function","name":"getProtocolFee","inputs":[],"outputs":[{"name":"","type":"uint256","internalType":"uint256"}],"stateMutability":"view"},{"type":"function","name":"getRedeemableAmount","inputs":[{"name":"marketId","type":"uint256","internalType":"uint256"},{"name":"amount","type":"uint256","internalType":"uint256"}],"outputs":[{"name":"","type":"uint256","internalType":"uint256"}],"stateMutability":"view"},{"type":"function","name":"isConsumingScheduledOp","inputs":[],"outputs":[{"name":"","type":"bytes4","internalType":"bytes4"}],"stateMutability":"view"},{"type":"function","name":"isMarketResolved","inputs":[{"name":"marketId","type":"uint256","internalType":"uint256"}],"outputs":[{"name":"","type":"bool","internalType":"bool"}],"stateMutability":"view"},{"type":"function","name":"redeem","inputs":[{"name":"_marketId","type":"uint256","internalType":"uint256"}],"outputs":[],"stateMutability":"nonpayable"},{"type":"function","name":"redeemDefaultedMarket","inputs":[{"name":"_marketId","type":"uint256","internalType":"uint256"}],"outputs":[],"stateMutability":"nonpayable"},{"type":"function","name":"resolveMarket","inputs":[{"name":"_marketId","type":"uint256","internalType":"uint256"},{"name":"_winningOutcome","type":"uint128","internalType":"uint128"}],"outputs":[],"stateMutability":"nonpayable"},{"type":"function","name":"reviewMarket","inputs":[{"name":"_marketId","type":"uint256","internalType":"uint256"},{"name":"_isApproved","type":"bool","internalType":"bool"},{"name":"data","type":"string","internalType":"string"}],"outputs":[],"stateMutability":"nonpayable"},{"type":"function","name":"sell","inputs":[{"name":"_marketId","type":"uint256","internalType":"uint256"},{"name":"_outcome","type":"uint8","internalType":"uint8"},{"name":"_amount","type":"uint256","internalType":"uint256"},{"name":"_minReturn","type":"uint256","internalType":"uint256"}],"outputs":[],"stateMutability":"nonpayable"},{"type":"function","name":"setAuthority","inputs":[{"name":"newAuthority","type":"address","internalType":"address"}],"outputs":[],"stateMutability":"nonpayable"},{"type":"function","name":"setCollateralTokenAllowed","inputs":[{"name":"token","type":"address","internalType":"address"},{"name":"allowed","type":"bool","internalType":"bool"}],"outputs":[],"stateMutability":"nonpayable"},{"type":"function","name":"setInsuranceAddress","inputs":[{"name":"insuranceAddress","type":"address","internalType":"address"}],"outputs":[],"stateMutability":"nonpayable"},{"type":"function","name":"setMarketResolver","inputs":[{"name":"_resolver","type":"address","internalType":"address"},{"name":"_isPublicResolver","type":"bool","internalType":"bool"}],"outputs":[],"stateMutability":"nonpayable"},{"type":"function","name":"setMarketResolverFee","inputs":[{"name":"_feeBps","type":"uint16","internalType":"uint16"}],"outputs":[],"stateMutability":"nonpayable"},{"type":"function","name":"setMinimumInitialCollateral","inputs":[{"name":"amount","type":"uint256","internalType":"uint256"}],"outputs":[],"stateMutability":"nonpayable"},{"type":"function","name":"setProtocolFee","inputs":[{"name":"feeBps","type":"uint256","internalType":"uint256"}],"outputs":[],"stateMutability":"nonpayable"},{"type":"function","name":"setXOMarketsAddress","inputs":[{"name":"_xoMarkets","type":"address","internalType":"address"}],"outputs":[],"stateMutability":"nonpayable"},{"type":"function","name":"xOutcomes","inputs":[],"outputs":[{"name":"","type":"address","internalType":"contract XOutcome"}],"stateMutability":"view"},{"type":"function","name":"xoMarkets","inputs":[],"outputs":[{"name":"","type":"address","internalType":"contract XOMarket"}],"stateMutability":"view"},{"type":"event","name":"AuthorityUpdated","inputs":[{"name":"authority","type":"address","indexed":false,"internalType":"address"}],"anonymous":false},{"type":"event","name":"CollateralRedeemed","inputs":[{"name":"marketId","type":"uint256","indexed":true,"internalType":"uint256"},{"name":"redeemer","type":"address","indexed":true,"internalType":"address"},{"name":"amount","type":"uint256","indexed":false,"internalType":"uint256"}],"anonymous":false},{"type":"event","name":"CollateralTokenAllowed","inputs":[{"name":"token","type":"address","indexed":true,"internalType":"address"},{"name":"allowed","type":"bool","indexed":false,"internalType":"bool"}],"anonymous":false},{"type":"event","name":"InsuranceAddressSet","inputs":[{"name":"insuranceAddress","type":"address","indexed":true,"internalType":"address"}],"anonymous":false},{"type":"event","name":"MarketCreated","inputs":[{"name":"marketId","type":"uint256","indexed":true,"internalType":"uint256"},{"name":"creator","type":"address","indexed":true,"internalType":"address"},{"name":"startsAt","type":"uint40","indexed":false,"internalType":"uint40"},{"name":"expiresAt","type":"uint40","indexed":false,"internalType":"uint40"},{"name":"collateralToken","type":"address","indexed":false,"internalType":"address"},{"name":"outcomeCount","type":"uint8","indexed":false,"internalType":"uint8"},{"name":"metaDataURI","type":"string","indexed":false,"internalType":"string"}],"anonymous":false},{"type":"event","name":"MarketPriceChanged","inputs":[{"name":"marketId","type":"uint256","indexed":true,"internalType":"uint256"},{"name":"outcomePrices","type":"uint256[]","indexed":false,"internalType":"uint256[]"}],"anonymous":false},{"type":"event","name":"MarketResolved","inputs":[{"name":"marketId","type":"uint256","indexed":true,"internalType":"uint256"},{"name":"resolver","type":"address","indexed":true,"internalType":"address"},{"name":"winningTokenId","type":"uint256","indexed":false,"internalType":"uint256"}],"anonymous":false},{"type":"event","name":"MarketResolverFeeSet","inputs":[{"name":"resolver","type":"address","indexed":true,"internalType":"address"},{"name":"feeBps","type":"uint16","indexed":false,"internalType":"uint16"}],"anonymous":false},{"type":"event","name":"MarketResolverSet","inputs":[{"name":"resolver","type":"address","indexed":true,"internalType":"address"},{"name":"isPublicResolver","type":"bool","indexed":false,"internalType":"bool"}],"anonymous":false},{"type":"event","name":"MarketReviewed","inputs":[{"name":"marketId","type":"uint256","indexed":true,"internalType":"uint256"},{"name":"isApproved","type":"bool","indexed":false,"internalType":"bool"},{"name":"data","type":"string","indexed":false,"internalType":"string"}],"anonymous":false},{"type":"event","name":"MarketStatusUpdated","inputs":[{"name":"marketId","type":"uint256","indexed":true,"internalType":"uint256"},{"name":"status","type":"uint8","indexed":false,"internalType":"enum MarketStatus"}],"anonymous":false},{"type":"event","name":"MinimumInitialCollateralSet","inputs":[{"name":"amount","type":"uint256","indexed":false,"internalType":"uint256"}],"anonymous":false},{"type":"event","name":"OutcomeTokensBought","inputs":[{"name":"marketId","type":"uint256","indexed":true,"internalType":"uint256"},{"name":"buyer","type":"address","indexed":true,"internalType":"address"},{"name":"outcome","type":"uint8","indexed":false,"internalType":"uint8"},{"name":"amount","type":"uint256","indexed":false,"internalType":"uint256"},{"name":"cost","type":"uint256","indexed":false,"internalType":"uint256"}],"anonymous":false},{"type":"event","name":"OutcomeTokensSold","inputs":[{"name":"marketId","type":"uint256","indexed":true,"internalType":"uint256"},{"name":"seller","type":"address","indexed":true,"internalType":"address"},{"name":"outcome","type":"uint8","indexed":false,"internalType":"uint8"},{"name":"amount","type":"uint256","indexed":false,"internalType":"uint256"},{"name":"received","type":"uint256","indexed":false,"internalType":"uint256"}],"anonymous":false},{"type":"event","name":"ProtocolFeeSet","inputs":[{"name":"feeBps","type":"uint256","indexed":false,"internalType":"uint256"}],"anonymous":false},{"type":"event","name":"XOMarketsAddressSet","inputs":[{"name":"xoMarketsAddress","type":"address","indexed":true,"internalType":"address"}],"anonymous":false},{"type":"error","name":"AccessManagedInvalidAuthority","inputs":[{"name":"authority","type":"address","internalType":"address"}]},{"type":"error","name":"AccessManagedRequiredDelay","inputs":[{"name":"caller","type":"address","internalType":"address"},{"name":"delay","type":"uint32","internalType":"uint32"}]},{"type":"error","name":"AccessManagedUnauthorized","inputs":[{"name":"caller","type":"address","internalType":"address"}]}],"bytecode":{"object":"0x60c060405234801561000f575f5ffd5b50604051615d60380380615d6083398101604081905261002e916101d9565b8661003881610157565b507fb8d3716136db480afe9a80da6be84f994509ecf9515ed14d03024589b5f2bd048490557fb8d3716136db480afe9a80da6be84f994509ecf9515ed14d03024589b5f2bd058390557fb8d3716136db480afe9a80da6be84f994509ecf9515ed14d03024589b5f2bd0680546001600160a01b0319166001600160a01b0384161790557fb8d3716136db480afe9a80da6be84f994509ecf9515ed14d03024589b5f2bd005f5b8251811015610139576001826001015f858481518110610100576101006102fa565b6020908102919091018101516001600160a01b031682528101919091526040015f20805460ff19169115159190911790556001016100de565b5050506001600160a01b039485166080525050501660a0525061030e565b5f80546001600160a01b0319166001600160a01b0383169081179091556040519081527f2f658b440c35314f52658ea8a740e05b284cdc84dc9ae01e891f21b8933e7cad9060200160405180910390a150565b80516001600160a01b03811681146101c0575f5ffd5b919050565b634e487b7160e01b5f52604160045260245ffd5b5f5f5f5f5f5f5f60e0888a0312156101ef575f5ffd5b6101f8886101aa565b9650610206602089016101aa565b9550610214604089016101aa565b606089015160808a01519196509450925061023160a089016101aa565b60c08901519092506001600160401b0381111561024c575f5ffd5b8801601f81018a1361025c575f5ffd5b80516001600160401b03811115610275576102756101c5565b604051600582901b90603f8201601f191681016001600160401b03811182821017156102a3576102a36101c5565b60405291825260208184018101929081018d8411156102c0575f5ffd5b6020850194505b838510156102e6576102d8856101aa565b8152602094850194016102c7565b508094505050505092959891949750929550565b634e487b7160e01b5f52603260045260245ffd5b60805160a0516159cf6103915f395f818161038b0152818161098c01528181611204015281816112dd01528181611651015281816118ec01528181611bfe01528181611c9c01528181611d2a0152818161209a01528181612208015281816129960152612ed601525f8181610489015281816108ce015261265f01526159cf5ff3fe608060405234801561000f575f5ffd5b5060043610610234575f3560e01c8063993fca7711610135578063c2b212d4116100b4578063eb44fdd311610079578063eb44fdd314610531578063f09f6fa014610551578063f59a40f514610564578063f8eef64f14610577578063fd967f471461058a575f5ffd5b8063c2b212d4146104e1578063cdb2ffdf146104f4578063d900c887146104fc578063db006a751461050b578063ddcd45b21461051e575f5ffd5b8063b0bb1c5a116100fa578063b0bb1c5a1461047b578063b687c5c314610484578063bb208f55146104ab578063bf7e214f146104be578063c0a027f4146104ce575f5ffd5b8063993fca77146104275780639b29429d1461043a5780639dab21c41461044d578063a2d7fadb14610460578063a5a4103114610473575f5ffd5b806353ac55f5116101c1578063787dce3d11610186578063787dce3d146103ad5780637a9e5e4b146103c05780637add0a1e146103d35780638fb36037146103e65780639149295614610407575f5ffd5b806353ac55f51461032a578063583bc2b51461034d57806364e7c9861461036057806366f390e5146103735780636bed525614610386575f5ffd5b806335f6f6891161020757806335f6f689146102b357806341a976f6146102c657806342a5aca4146102fa578063509e70bb1461030d57806350f9059414610320575f5ffd5b806304122aa81461023857806306394c2f1461025d5780631783af9a146102725780632ed00bef14610293575b5f5ffd5b610240610593565b6040516001600160a01b0390911681526020015b60405180910390f35b61027061026b366004615274565b6105ae565b005b61028561028036600461531d565b610bf0565b604051908152602001610254565b6102a66102a136600461531d565b610c0c565b60405161025491906154c4565b6102856102c1366004615511565b610d4f565b6102d96102d436600461553b565b610d81565b6040805182511515815260209283015161ffff169281019290925201610254565b610285610308366004615556565b610dde565b61028561031b366004615556565b610df4565b6102856201518081565b61033d61033836600461531d565b610e00565b6040519015158152602001610254565b61033d61035b36600461553b565b610e25565b61027061036e366004615596565b610e52565b6102706103813660046155eb565b61105e565b6102407f000000000000000000000000000000000000000000000000000000000000000081565b6102706103bb36600461531d565b611469565b6102706103ce36600461553b565b6114ad565b6102706103e1366004615623565b611525565b6103ee6115e2565b6040516001600160e01b03199091168152602001610254565b61041a61041536600461531d565b611604565b604051610254919061563c565b610285610435366004615511565b61164e565b6102706104483660046155eb565b6116e5565b61027061045b36600461553b565b611a33565b61027061046e36600461531d565b611a88565b610285611ea0565b6102856104b081565b6102407f000000000000000000000000000000000000000000000000000000000000000081565b6102706104b936600461553b565b611eb2565b5f546001600160a01b0316610240565b6102856104dc366004615511565b611f07565b6102706104ef36600461531d565b611f59565b610285611f96565b610285670de0b6b3a764000081565b61027061051936600461531d565b611fa8565b61028561052c36600461567e565b6122c0565b61054461053f36600461531d565b6122cb565b604051610254919061569e565b61027061055f3660046156ad565b6123e8565b6102706105723660046156e6565b61280a565b6102706105853660046156e6565b612874565b61028561271081565b5f61059c6128e9565b600601546001600160a01b0316919050565b428864ffffffffff16116106095760405162461bcd60e51b815260206004820152601f60248201527f537461727473206174206d75737420626520696e20746865206675747572650060448201526064015b60405180910390fd5b8764ffffffffff168764ffffffffff16116106715760405162461bcd60e51b815260206004820152602260248201527f45787069726573206174206d7573742062652061667465722073746172747320604482015261185d60f21b6064820152608401610600565b6106796128e9565b6001600160a01b0387165f908152600191909101602052604090205460ff166106e45760405162461bcd60e51b815260206004820152601c60248201527f436f6c6c61746572616c20746f6b656e206e6f7420616c6c6f776564000000006044820152606401610600565b6106ec6128e9565b6004015485101561073f5760405162461bcd60e51b815260206004820152601a60248201527f496e697469616c20636f6c6c61746572616c20746f6f206c6f770000000000006044820152606401610600565b6127108461ffff1611156107955760405162461bcd60e51b815260206004820152601b60248201527f43726561746f72206665652065786365656473206d6178696d756d00000000006044820152606401610600565b6040516370a0823160e01b815233600482015285906001600160a01b038816906370a0823190602401602060405180830381865afa1580156107d9573d5f5f3e3d5ffd5b505050506040513d601f19601f820116820180604052508101906107fd9190615712565b101561084b5760405162461bcd60e51b815260206004820152601f60248201527f496e73756666696369656e7420636f6c6c61746572616c2062616c616e6365006044820152606401610600565b6040516323b872dd60e01b8152336004820152306024820152604481018690526001600160a01b038716906323b872dd906064016020604051808303815f875af115801561089b573d5f5f3e3d5ffd5b505050506040513d601f19601f820116820180604052508101906108bf9190615729565b505f6108c96128e9565b90505f7f00000000000000000000000000000000000000000000000000000000000000006001600160a01b031663d0def52133856040518363ffffffff1660e01b815260040161091a929190615772565b6020604051808303815f875af1158015610936573d5f5f3e3d5ffd5b505050506040513d601f19601f8201168201806040525081019061095a9190615712565b604051630451ca4160e41b815233600482015260ff87166024820152604481018990529091505f906001600160a01b037f0000000000000000000000000000000000000000000000000000000000000000169063451ca410906064016020604051808303815f875af11580156109d2573d5f5f3e3d5ffd5b505050506040513d601f19601f820116820180604052508101906109f69190615712565b90505f835f015f8481526020019081526020015f20905082815f015f6101000a8154816001600160801b0302191690836001600160801b031602179055508b815f0160156101000a81548164ffffffffff021916908364ffffffffff1602179055508a815f0160106101000a81548164ffffffffff021916908364ffffffffff16021790555042815f01601a6101000a81548164ffffffffff021916908364ffffffffff160217905550836002015f876001600160a01b03166001600160a01b031681526020019081526020015f205f015f9054906101000a900460ff1615610aea5760068101805460ff19169055610afa565b60068101805460ff191660031790555b85816002015f6101000a8154816001600160a01b0302191690836001600160a01b03160217905550878160020160146101000a81548161ffff021916908361ffff16021790555081816003018190555086816004015f6101000a81548160ff021916908360ff160217905550898160040160016101000a8154816001600160a01b0302191690836001600160a01b03160217905550888160050181905550336001600160a01b0316837f292b548816e114e209b2507bcd9746ccf2016f8677b7755d74570e9598f75fce8e8e8e8c8b604051610bda959493929190615795565b60405180910390a3505050505050505050505050565b5f610bf96128e9565b5f92835260205250604090206005015490565b610c146150f9565b610c1c6150f9565b610c246128e9565b5f848152602091825260409081902081516101a08101835281546001600160801b038082168352600160801b820464ffffffffff90811696840196909652600160a81b8204861694830194909452600160d01b90048416606082015260018201549384166080820152600160281b90930490911660a083015260028101546001600160a01b0380821660c0850152600160a01b90910461ffff1660e084015260038201546101008085019190915260048084015460ff80821661012088015292900490921661014085015260058301546101608501526006830154610180850192911690811115610d1757610d17615334565b6004811115610d2857610d28615334565b9052508152610d368361290d565b6020820152610d4483612a62565b604082015292915050565b5f8160ff16610d5c6128e9565b5f8581526020919091526040902060030154610d7891906157f5565b90505b92915050565b604080518082019091525f8082526020820152610d9c6128e9565b6001600160a01b03929092165f9081526002909201602090815260409283902083518085019094525460ff811615158452610100900461ffff16908301525090565b5f610dea848484612b1f565b90505b9392505050565b5f610dea848484612bcc565b5f610e096128e9565b5f92835260205250604090206001015464ffffffffff16151590565b5f610e2e6128e9565b6001600160a01b039092165f90815260019290920160205250604090205460ff1690565b5f610e5b6128e9565b5f858152602082905260408120919250600682015460ff166004811115610e8457610e84615334565b1480610ea857506001600682015460ff166004811115610ea657610ea6615334565b145b610ee95760405162461bcd60e51b81526020600482015260126024820152714d61726b6574206e6f742070656e64696e6760701b6044820152606401610600565b60028101546001600160a01b03163314610f455760405162461bcd60e51b815260206004820152601860248201527f4f6e6c79207265736f6c7665722063616e2072657669657700000000000000006044820152606401610600565b805442600160801b90910464ffffffffff1611610f745760405162461bcd60e51b815260040161060090615808565b8315610f96576006810180546003919060ff19166001835b0217905550610fdc565b6001600682015460ff166004811115610fb157610fb1615334565b03610fcc576006810180546002919060ff1916600183610f8c565b60068101805460ff191660011790555b600681015460405186917fd067ebf1565b7b7f7e3c08ccb7f355defc06fd6a3e5e3da1f0a43c8a235350ac916110159160ff1690615830565b60405180910390a2847ffb75f1f04c88399a6f5fc3d73519baf41da5a6671a7ce93acac38c14c9003703858560405161104f92919061583e565b60405180910390a25050505050565b836110676128e9565b5f82815260209190915260408120546001600160801b0316900361109d5760405162461bcd60e51b815260040161060090615858565b846110a66128e9565b5f8281526020919091526040902054600160801b900464ffffffffff1642106110e15760405162461bcd60e51b815260040161060090615808565b8560036110ec6128e9565b5f838152602091909152604090206006015460ff16600481111561111257611112615334565b1461112f5760405162461bcd60e51b815260040161060090615887565b5f6111386128e9565b5f89815260208290526040902060048101549192509060ff908116908916106111735760405162461bcd60e51b8152600401610600906158b2565b5f61117f8a8a8a612bcc565b9050868110156111c85760405162461bcd60e51b815260206004820152601460248201527352657475726e2062656c6f77206d696e696d756d60601b6044820152606401610600565b5f8960ff1683600301546111dc91906157f5565b604051627eeac760e11b81523360048201526024810182905290915089906001600160a01b037f0000000000000000000000000000000000000000000000000000000000000000169062fdd58e90604401602060405180830381865afa158015611248573d5f5f3e3d5ffd5b505050506040513d601f19601f8201168201806040525081019061126c9190615712565b10156112ba5760405162461bcd60e51b815260206004820152601b60248201527f496e73756666696369656e74206f7574636f6d6520746f6b656e7300000000006044820152606401610600565b604051637a94c56560e11b815233600482015260248101829052604481018a90527f00000000000000000000000000000000000000000000000000000000000000006001600160a01b03169063f5298aca906064015f604051808303815f87803b158015611326575f5ffd5b505af1158015611338573d5f5f3e3d5ffd5b5050505081836005015f82825461134f91906158db565b909155505060048381015460405163a9059cbb60e01b815233928101929092526024820184905261010090046001600160a01b03169063a9059cbb906044016020604051808303815f875af11580156113aa573d5f5f3e3d5ffd5b505050506040513d601f19601f820116820180604052508101906113ce9190615729565b506040805160ff8c168152602081018b905290810183905233908c907fb2cab92e8c420c65261523fc7ec7f15931cb7ad6bc4547497017eaaf9765ce3b9060600160405180910390a35f6114218c612a62565b90508b7fa059f7b995139bca6463ccc673a703e41d03defd1e6ecbac0e0a03761d9f9e5b82604051611453919061563c565b60405180910390a2505050505050505050505050565b806114726128e9565b600501556040518181527fdb5aafdb29539329e37d4e3ee869bc4031941fd55a5dfc92824fbe34b204e30d906020015b60405180910390a150565b5f5433906001600160a01b031681146114e35760405162d1953b60e31b81526001600160a01b0382166004820152602401610600565b816001600160a01b03163b5f03611518576040516361798f2f60e11b81526001600160a01b0383166004820152602401610600565b61152182612cce565b5050565b6127108161ffff1611156115715760405162461bcd60e51b81526020600482015260136024820152724665652065786365656473206d6178696d756d60681b6044820152606401610600565b5f61157a6128e9565b335f818152600283016020908152604091829020805462ffff00191661010061ffff891690810291909117909155915191825292935090917fd3aa86ea0d861d4db7068954a70acb7529fbd109d55dd455bb5f6348ce0c52d891015b60405180910390a25050565b5f8054600160a01b900460ff166115f857505f90565b50638fb3603760e01b90565b60608161160f6128e9565b5f82815260209190915260408120546001600160801b031690036116455760405162461bcd60e51b815260040161060090615858565b610ded83612a62565b5f7f00000000000000000000000000000000000000000000000000000000000000006001600160a01b031663bd85b0396116888585610d4f565b6040518263ffffffff1660e01b81526004016116a691815260200190565b602060405180830381865afa1580156116c1573d5f5f3e3d5ffd5b505050506040513d601f19601f82011682018060405250810190610d789190615712565b836116ee6128e9565b5f82815260209190915260408120546001600160801b031690036117245760405162461bcd60e51b815260040161060090615858565b8461172d6128e9565b5f8281526020919091526040902054600160801b900464ffffffffff1642106117685760405162461bcd60e51b815260040161060090615808565b8560036117736128e9565b5f838152602091909152604090206006015460ff16600481111561179957611799615334565b146117b65760405162461bcd60e51b815260040161060090615887565b5f6117bf6128e9565b5f89815260208290526040902060048101549192509060ff908116908916106117fa5760405162461bcd60e51b8152600401610600906158b2565b5f6118068a8a8a612b1f565b90508681111561184f5760405162461bcd60e51b8152602060048201526014602482015273436f73742065786365656473206d6178696d756d60601b6044820152606401610600565b6004828101546040516323b872dd60e01b815233928101929092523060248301526044820183905261010090046001600160a01b0316906323b872dd906064016020604051808303815f875af11580156118ab573d5f5f3e3d5ffd5b505050506040513d601f19601f820116820180604052508101906118cf9190615729565b5080826005015f8282546118e391906157f5565b925050819055507f00000000000000000000000000000000000000000000000000000000000000006001600160a01b031663731133e9338b60ff16856003015461192d91906157f5565b6040516001600160e01b031960e085901b1681526001600160a01b0390921660048301526024820152604481018b9052608060648201525f608482015260a4015f604051808303815f87803b158015611984575f5ffd5b505af1158015611996573d5f5f3e3d5ffd5b50506040805160ff8d168152602081018c90529081018490523392508c91507feb9457593caf7fc87806f628109f2f96fcfa5381c0e28c0372c40d1391f7d1449060600160405180910390a35f6119ec8b612a62565b90508a7fa059f7b995139bca6463ccc673a703e41d03defd1e6ecbac0e0a03761d9f9e5b82604051611a1e919061563c565b60405180910390a25050505050505050505050565b80611a3c6128e9565b60030180546001600160a01b0319166001600160a01b03928316179055604051908216907f490526bf1df8a67c5c22e05acd3243a949f8214a3a9c1b87f147c9e560f661d7905f90a250565b80611a916128e9565b5f82815260209190915260408120546001600160801b03169003611ac75760405162461bcd60e51b815260040161060090615858565b814262015180611ad56128e9565b5f8481526020919091526040902054611afc9190600160801b900464ffffffffff166157f5565b108015611b275750611b0c6128e9565b5f828152602091909152604090206001015464ffffffffff16155b611b6a5760405162461bcd60e51b815260206004820152601460248201527313585c9ad95d081b9bdd08191959985d5b1d195960621b6044820152606401610600565b5f611b736128e9565b5f858152602082905260408120600481015460038201546005830154949550919360ff90911692908390611bb090670de0b6b3a7640000906158ee565b611bba9190615919565b90505f805b8460ff168160ff161015611e45575f611bdb60ff8316866157f5565b60405163bd85b03960e01b8152600481018290529091505f906001600160a01b037f0000000000000000000000000000000000000000000000000000000000000000169063bd85b03990602401602060405180830381865afa158015611c43573d5f5f3e3d5ffd5b505050506040513d601f19601f82011682018060405250810190611c679190615712565b90505f611c748287615919565b604051627eeac760e11b8152336004820152602481018590529091505f906001600160a01b037f0000000000000000000000000000000000000000000000000000000000000000169062fdd58e90604401602060405180830381865afa158015611ce0573d5f5f3e3d5ffd5b505050506040513d601f19601f82011682018060405250810190611d049190615712565b604051637a94c56560e11b815233600482015260248101869052604481018290529091507f00000000000000000000000000000000000000000000000000000000000000006001600160a01b03169063f5298aca906064015f604051808303815f87803b158015611d73575f5ffd5b505af1158015611d85573d5f5f3e3d5ffd5b505050505f670de0b6b3a76400008284611d9f91906158ee565b611da99190615919565b60048c81015460405163a9059cbb60e01b81523392810192909252602482018390529192506101009091046001600160a01b03169063a9059cbb906044016020604051808303815f875af1158015611e03573d5f5f3e3d5ffd5b505050506040513d601f19601f82011682018060405250810190611e279190615729565b50611e3281886157f5565b96505060019094019350611bbf92505050565b5080856005015f828254611e5991906158db565b909155505060405181815233908a907f6bdc08ebe005c38be702a234af7f14535a719b81061f6893ad85ff62fe9253979060200160405180910390a3505050505050505050565b5f611ea96128e9565b60050154905090565b80611ebb6128e9565b60060180546001600160a01b0319166001600160a01b03928316179055604051908216907fb6e4d225c1c4ffe562f1388af0e16470943bd1688236517eb9bd41373e97c3e3905f90a250565b5f82611f116128e9565b5f82815260209190915260408120546001600160801b03169003611f475760405162461bcd60e51b815260040161060090615858565b611f518484612d1b565b949350505050565b80611f626128e9565b600401556040518181527ff061c45608f654ce41f651a8f81f43e59181bb794bc5f5893973bbeefd400103906020016114a2565b5f611f9f6128e9565b60040154905090565b80611fb16128e9565b5f82815260209190915260408120546001600160801b03169003611fe75760405162461bcd60e51b815260040161060090615858565b81611ff06128e9565b5f828152602091909152604081206001015464ffffffffff16900361204d5760405162461bcd60e51b815260206004820152601360248201527213585c9ad95d081b9bdd081c995cdbdb1d9959606a1b6044820152606401610600565b5f6120566128e9565b5f8581526020829052604080822060018101549151627eeac760e11b8152336004820152600160281b9092046001600160801b0316602483018190529394509291907f00000000000000000000000000000000000000000000000000000000000000006001600160a01b03169062fdd58e90604401602060405180830381865afa1580156120e6573d5f5f3e3d5ffd5b505050506040513d601f19601f8201168201806040525081019061210a9190615712565b90505f811161215b5760405162461bcd60e51b815260206004820152601b60248201527f4e6f2077696e6e696e6720746f6b656e7320746f2072656465656d00000000006044820152606401610600565b5f6121668883612e8d565b60048581015460405163a9059cbb60e01b81523392810192909252602482018390529192506101009091046001600160a01b03169063a9059cbb906044016020604051808303815f875af11580156121c0573d5f5f3e3d5ffd5b505050506040513d601f19601f820116820180604052508101906121e49190615729565b50604051637a94c56560e11b815233600482015260248101849052604481018390527f00000000000000000000000000000000000000000000000000000000000000006001600160a01b03169063f5298aca906064015f604051808303815f87803b158015612251575f5ffd5b505af1158015612263573d5f5f3e3d5ffd5b5050505080846005015f82825461227a91906158db565b9091555050604051818152339089907f6bdc08ebe005c38be702a234af7f14535a719b81061f6893ad85ff62fe9253979060200160405180910390a35050505050505050565b5f610d788383612e8d565b6122d3615120565b6122db6128e9565b5f838152602091825260409081902081516101a08101835281546001600160801b038082168352600160801b820464ffffffffff90811696840196909652600160a81b8204861694830194909452600160d01b90048416606082015260018201549384166080820152600160281b90930490911660a083015260028101546001600160a01b0380821660c0850152600160a01b90910461ffff1660e084015260038201546101008085019190915260048084015460ff808216610120880152929004909216610140850152600583015461016085015260068301546101808501929116908111156123ce576123ce615334565b60048111156123df576123df615334565b90525092915050565b816123f16128e9565b5f82815260209190915260408120546001600160801b031690036124275760405162461bcd60e51b815260040161060090615858565b826124306128e9565b5f828152602091909152604090206001015464ffffffffff16156124965760405162461bcd60e51b815260206004820152601760248201527f4d61726b657420616c7265616479207265736f6c7665640000000000000000006044820152606401610600565b8361249f6128e9565b5f8281526020919091526040902054600160801b900464ffffffffff164210156125005760405162461bcd60e51b815260206004820152601260248201527113585c9ad95d081b9bdd08195e1c1a5c995960721b6044820152606401610600565b84600361250b6128e9565b5f838152602091909152604090206006015460ff16600481111561253157612531615334565b1461254e5760405162461bcd60e51b815260040161060090615887565b5f6125576128e9565b5f8881526020829052604081206001810180546001600160a81b031916600160281b6001600160801b038c160264ffffffffff1916174264ffffffffff16179055600681018054600460ff199091161790556002810180546001600160a01b031916331790819055600582015493945090926125e19161ffff600160a01b90910416612710612fc6565b90505f61260384600501546127108560050154612fc69092919063ffffffff16565b90505f61261082846157f5565b846005015461261f91906158db565b60048581015486546040516331a9108f60e11b81526001600160801b03909116928101929092529192506101009091046001600160a01b03908116915f917f00000000000000000000000000000000000000000000000000000000000000001690636352211e90602401602060405180830381865afa1580156126a4573d5f5f3e3d5ffd5b505050506040513d601f19601f820116820180604052508101906126c89190615938565b60405163a9059cbb60e01b81526001600160a01b038083166004830152602482018890529192509083169063a9059cbb906044016020604051808303815f875af1158015612718573d5f5f3e3d5ffd5b505050506040513d601f19601f8201168201806040525081019061273c9190615729565b50600687015460405163a9059cbb60e01b81526001600160a01b039182166004820152602481018690529083169063a9059cbb906044016020604051808303815f875af115801561278f573d5f5f3e3d5ffd5b505050506040513d601f19601f820116820180604052508101906127b39190615729565b50600586018390556040516001600160801b038d16815233908e907facef513e023ec1abbd3ca7f9f777a61f3806bf0118d30302223ef3a4c9afb2849060200160405180910390a350505050505050505050505050565b806128136128e9565b6001600160a01b0384165f818152600192909201602052604091829020805493151560ff1990941693909317909255517fef5bafd4fd27c833a4b67248375f7264fb1df78e12b6146634e459dd4811ad40906115d690841515815260200190565b5f61287d6128e9565b6001600160a01b0384165f81815260028301602052604090819020805486151560ff1990911617905551919250907fab31742e55ed9f801fdf5008b7dddd0a46837888ab508b0ab5f3a08ae4973725906128dc90851515815260200190565b60405180910390a2505050565b7fb8d3716136db480afe9a80da6be84f994509ecf9515ed14d03024589b5f2bd0090565b60605f6129186128e9565b5f84815260208290526040812060048101546003820154939450909260ff909116918267ffffffffffffffff811115612953576129536151d5565b60405190808252806020026020018201604052801561297c578160200160208202803683370190505b5090505f5b838160ff161015612a57576001600160a01b037f00000000000000000000000000000000000000000000000000000000000000001663bd85b0396129c860ff8416866157f5565b6040518263ffffffff1660e01b81526004016129e691815260200190565b602060405180830381865afa158015612a01573d5f5f3e3d5ffd5b505050506040513d601f19601f82011682018060405250810190612a259190615712565b828260ff1681518110612a3a57612a3a615953565b602090810291909101015280612a4f81615967565b915050612981565b509695505050505050565b60605f612a6d6128e9565b5f84815260208290526040812060048101549293509160ff16908167ffffffffffffffff811115612aa057612aa06151d5565b604051908082528060200260200182016040528015612ac9578160200160208202803683370190505b5090505f5b828160ff161015612b1557612ae38782612d1b565b828260ff1681518110612af857612af8615953565b602090810291909101015280612b0d81615967565b915050612ace565b5095945050505050565b5f5f612b296128e9565b5f86815260208290526040902060048101549192509060ff90811690861610612b645760405162461bcd60e51b8152600401610600906158b2565b5f612b6e8761290d565b90505f612b7a8261307c565b905085828860ff1681518110612b9257612b92615953565b60200260200101818151612ba691906157f5565b9052505f612bb38361307c565b9050612bbf82826158db565b9998505050505050505050565b5f5f612bd66128e9565b5f86815260208290526040902060048101549192509060ff90811690861610612c115760405162461bcd60e51b8152600401610600906158b2565b5f612c1b8761290d565b90505f612c278261307c565b905085828860ff1681518110612c3f57612c3f615953565b60200260200101511015612c8b5760405162461bcd60e51b8152602060048201526013602482015272496e73756666696369656e7420737570706c7960681b6044820152606401610600565b85828860ff1681518110612ca157612ca1615953565b60200260200101818151612cb591906158db565b9052505f612cc28361307c565b9050612bbf81836158db565b5f80546001600160a01b0319166001600160a01b0383169081179091556040519081527f2f658b440c35314f52658ea8a740e05b284cdc84dc9ae01e891f21b8933e7cad906020016114a2565b5f5f612d256128e9565b5f85815260208290526040902060048101549192509060ff90811690851610612d605760405162461bcd60e51b8152600401610600906158b2565b5f612d6a8661290d565b90506103e85f805b8351811015612daa57838181518110612d8d57612d8d615953565b602002602001015182612da091906157f5565b9150600101612d72565b505f612710612db983856158ee565b612dc39190615919565b90505f80805b8651811015612e38575f612e06612df8898481518110612deb57612deb615953565b6020026020010151613153565b612e0187613153565b6131bb565b90505f612e1282613475565b9050612e1e858261349b565b94508c60ff168303612e2e578093505b5050600101612dc9565b505f612e72612e4e670de0b6b3a7640000613153565b612e626001600160801b03198516866131bb565b6001600160801b03191690613860565b9050612e7d81613aad565b9c9b505050505050505050505050565b5f5f612e976128e9565b5f858152602082905260408082206001810154915163bd85b03960e01b8152600160281b9092046001600160801b0316600483018190529394509291907f00000000000000000000000000000000000000000000000000000000000000006001600160a01b03169063bd85b03990602401602060405180830381865afa158015612f23573d5f5f3e3d5ffd5b505050506040513d601f19601f82011682018060405250810190612f479190615712565b90505f5f8211612f57575f612f7a565b81670de0b6b3a76400008560050154612f7091906158ee565b612f7a9190615919565b9050670de0b6b3a76400008111612f915780612f9b565b670de0b6b3a76400005b9050670de0b6b3a7640000612fb088836158ee565b612fba9190615919565b98975050505050505050565b5f838302815f1985870982811083820303915050805f03612ffa57838281612ff057612ff0615905565b0492505050610ded565b808411613011576130116003851502601118613b2c565b5f848688095f868103871696879004966002600389028118808a02820302808a02820302808a02820302808a02820302808a02820302808a02909103029181900381900460010186841190950394909402919094039290920491909117919091029150509392505050565b5f6103e881805b84518110156130bb5784818151811061309e5761309e615953565b6020026020010151826130b191906157f5565b9150600101613083565b505f6127106130ca83856158ee565b6130d49190615919565b90505f805b8651811015613128575f6131046130fb898481518110612deb57612deb615953565b612e0186613153565b90505f61311082613475565b905061311c848261349b565b935050506001016130d9565b505f61313382613b3d565b90505f61314861314285613153565b83613860565b9050612fba81613aad565b5f815f0361316257505f919050565b815f61316d82613b63565b90506070811015613186578060700382901b9150613199565b6070811115613199576070810382901c91505b613fff0160701b6001600160701b03919091161760801b92915050565b919050565b5f617fff60f084811c8216919084901c8116908290036131ff5780617fff036131ee575061ffff60ef1b9150610d7b9050565b505050600160ff1b81168218610d7b565b80617fff03613242576dffffffffffffffffffffffffffff60801b841615613231575061ffff60ef1b9150610d7b9050565b505050808218600160ff1b16610d7b565b600160801b600160ff1b0384165f0361329057600160801b600160ff1b0385165f03613278575061ffff60ef1b9150610d7b9050565b505050808218600160ff1b16617fff60f01b17610d7b565b6001600160701b03608085901c165f8290036132af57600191506132b6565b600160701b175b6001600160701b03608087901c165f8490036132f75780156132f2575f6132dc82613b63565b6001955060e20393840160711901939190911b90505b613301565b600160701b1760721b5b81818161331057613310615905565b049050805f0361333e57600160ff1b8787181661332d575f613333565b600160ff1b5b945050505050610d7b565b6001606c1b81101561335257613352615985565b5f600160731b82101561339057600160721b82101561338557600160711b82101561337e576070613388565b6071613388565b60725b60ff16613399565b61339982613b63565b9050836140710181860111156133b657617fff94505f9150613446565b83818601613ffc0110156133cf575f94505f9150613446565b83818601613f8c01101561341b578385613ffc0111156133fa578385613ffc010382901b9150613413565b8385613ffc01101561341357613ffc8585030382901c91505b5f9450613446565b607081111561342e576070810382901c91505b6001600160701b038216915083818601613f8d010394505b81607086901b888a186001607f1b60801b1660801c6001600160801b0316171760801b95505050505050610d7b565b5f610d7b613496836f1fffb8aa3b295c17f0bbbe87fed0691d60811b613860565b613bfe565b5f617fff60f084811c8216919084901c8116908290036134f65780617fff036134ec576001600160801b0319808516908616036134dc578492505050610d7b565b5061ffff60ef1b9150610d7b9050565b8492505050610d7b565b80617fff03613509578392505050610d7b565b6001607f1b608086901c90811015906001600160701b03165f8490036135325760019350613539565b600160701b175b6001607f1b608087901c90811015906001600160701b03165f8590036135625760019450613569565b600160701b175b825f0361359a576001600160801b03198816600160ff1b1461358b578761358d565b5f5b9650505050505050610d7b565b805f036135bc576001600160801b03198916600160ff1b1461358b578861358d565b848603821515851515036136c05760708113156135e25789975050505050505050610d7b565b5f8113156135f35790811c90613620565b606f1981121561360c5788975050505050505050610d7b565b5f81121561362057805f0384901c93508596505b92810192600160711b841061363b576001968701969390931c925b86617fff0361366c578461365457617fff60f01b61365e565b6001600160f01b03195b975050505050505050610d7b565b600160701b841015613680575f965061368d565b6001600160701b03841693505b83607088901b8661369e575f6136a4565b6001607f1b5b6001600160801b0316171760801b975050505050505050610d7b565b5f8113156136da57600184901b93506001870396506136f0565b5f8112156136f057600182901b91506001860396505b6070811315613702576001915061374d565b600181131561371f576001810360018303901c600101915061374d565b606f19811215613732576001935061374d565b5f1981121561374d576001815f030360018503901c60010193505b81841061375e578184039350613767565b83820393508294505b835f0361377e57505f9650610d7b95505050505050565b5f61378885613b63565b9050806071036137ad57600185901c6001600160701b031694506001880197506137fa565b60708110156137ed576070819003808911156137dc578086901b6001600160701b0316955080890398506137e7565b5f985f19019590951b945b506137fa565b6001600160701b03851694505b87617fff0361382c578561381357617fff60f01b61381d565b6001600160f01b03195b98505050505050505050610d7b565b84607089901b8761383d575f613843565b6001607f1b5b6001600160801b0316171760801b98505050505050505050610d7b565b5f617fff60f084811c8216919084901c8116908290036138ed5780617fff036138ca576001600160801b0319808516908616036138a857505050600160ff1b81168218610d7b565b6001600160801b031985851816600160ff1b036134dc57505050818117610d7b565b600160801b600160ff1b0384165f036131ee575061ffff60ef1b9150610d7b9050565b80617fff0361392a57600160801b600160ff1b0385165f03613919575061ffff60ef1b9150610d7b9050565b505050600160ff1b82168118610d7b565b6001600160701b03608086901c165f8390036139495760019250613950565b600160701b175b6001600160701b03608086901c165f83900361396f5760019250613976565b600160701b175b8082029150815f0361399557600160ff1b8787181661332d575f613333565b928201925f600160e11b8310156139c757600160e01b8310156139c0576139bb83613b63565b6139ca565b60e06139ca565b60e15b905061407081860110156139e3575f94505f9250613a7e565b6140e08186011015613a2557614070851015613a0857846140700383901c9250613a1d565b614070851115613a1d57614070850383901b92505b5f9450613a7e565b61c0dd8186011115613a3e57617fff94505f9250613a7e565b6070811115613a55576070810383901c9250613a68565b6070811015613a68578060700383901b92505b6001600160701b03831692506140df8186010394505b82607086901b888a186001607f1b60801b1660801c6001600160801b0316171760801b95505050505050610d7b565b5f617fff60f083901c16613fff811015613ac957505f92915050565b6001607f1b608084901c10613adc575f5ffd5b6140fe811115613aea575f5ffd5b600160701b6001600160701b03608085901c161761406f821015613b145761406f8290031c610ded565b61406f821115610ded5761406e1982011b9392505050565b634e487b715f52806020526024601cfd5b5f610d7b613b4a83614f4d565b6f3ffe62e42fefa39ef35793c7673007e560801b613860565b5f5f8211613b6f575f5ffd5b5f600160801b8310613b8357608092831c92015b600160401b8310613b9657604092831c92015b6401000000008310613baa57602092831c92015b620100008310613bbc57601092831c92015b6101008310613bcd57600892831c92015b60108310613bdd57600492831c92015b60048310613bed57600292831c92015b60028310610d7b5760010192915050565b5f6001607f1b608083901c90811190617fff60f085901c8116916001600160701b03169082148015613c2f57508015155b15613c43575061ffff60ef1b949350505050565b61400d821115613c685782613c5d57617fff60f01b613c5f565b5f5b95945050505050565b613f7f821015613c815750613fff60f01b949350505050565b815f03613c915760019150613c98565b600160701b175b613fef821115613cae57613fee1982011b613cc0565b613fef821015613cc057613fef8290031c5b828015613cd1575061203760811b81115b15613ce057505f949350505050565b82158015613cff5750713fffffffffffffffffffffffffffffffffff81115b15613d135750617fff60f01b949350505050565b6001600160801b0381169060801c838015613d2d57508115155b15613d39579019906001015b6001607f1b82811615613d5d5770016a09e667f3bcc908b2fb1366ea957d3e0260801c5b6001607e1b831615613d80577001306fe0a31b7152de8d5a46305c85edec0260801c5b6001607d1b831615613da3577001172b83c7d517adcdf7c8c50eb14a791f0260801c5b6001607c1b831615613dc65770010b5586cf9890f6298b92b71842a983630260801c5b6001607b1b831615613de9577001059b0d31585743ae7c548eb68ca417fd0260801c5b6001607a1b831615613e0c57700102c9a3e778060ee6f7caca4f7a29bde80260801c5b600160791b831615613e2f5770010163da9fb33356d84a66ae336dcdfa3f0260801c5b600160781b831615613e5257700100b1afa5abcbed6129ab13ec11dc95430260801c5b600160771b831615613e755770010058c86da1c09ea1ff19d294cf2f679b0260801c5b600160761b831615613e98577001002c605e2e8cec506d21bfc89a23a00f0260801c5b600160751b831615613ebb57700100162f3904051fa128bca9c55c31e5df0260801c5b600160741b831615613ede577001000b175effdc76ba38e31671ca9397250260801c5b600160731b831615613f0157700100058ba01fb9f96d6cacd4b180917c3d0260801c5b600160721b831615613f245770010002c5cc37da9491d0985c348c68e7b30260801c5b600160711b831615613f47577001000162e525ee054754457d59952920260260801c5b600160701b831615613f6a5770010000b17255775c040618bf4a4ade83fc0260801c5b6001606f1b831615613f8d577001000058b91b5bc9ae2eed81e9b7d4cfab0260801c5b6001606e1b831615613fb057700100002c5c89d5ec6ca4d7c8acc017b7c90260801c5b6001606d1b831615613fd35770010000162e43f4f831060e02d839a9d16d0260801c5b6001606c1b831615613ff657700100000b1721bcfc99d9f890ea069117630260801c5b6001606b1b8316156140195770010000058b90cf1e6d97f9ca14dbcc16280260801c5b6001606a1b83161561403c577001000002c5c863b73f016468f6bac5ca2b0260801c5b600160691b83161561405f57700100000162e430e5a18f6119e3c02282a50260801c5b600160681b831615614082577001000000b1721835514b86e6d96efd1bfe0260801c5b600160671b8316156140a557700100000058b90c0b48c6be5df846c5b2ef0260801c5b600160661b8316156140c85770010000002c5c8601cc6b9e94213c72737a0260801c5b600160651b8316156140eb577001000000162e42fff037df38aa2b219f060260801c5b600160641b83161561410e5770010000000b17217fba9c739aa5819f44f90260801c5b600160631b831615614131577001000000058b90bfcdee5acd3c1cedc8230260801c5b600160621b83161561415457700100000002c5c85fe31f35a6a30da1be500260801c5b600160611b8316156141775770010000000162e42ff0999ce3541b9fffcf0260801c5b600160601b83161561419a57700100000000b17217f80f4ef5aadda455540260801c5b6001605f1b8316156141bd5770010000000058b90bfbf8479bd5a81b51ad0260801c5b6001605e1b8316156141e0577001000000002c5c85fdf84bd62ae30a74cc0260801c5b6001605d1b83161561420357700100000000162e42fefb2fed257559bdaa0260801c5b6001605c1b831615614226577001000000000b17217f7d5a7716bba4a9ae0260801c5b6001605b1b83161561424957700100000000058b90bfbe9ddbac5e109cce0260801c5b6001605a1b83161561426c5770010000000002c5c85fdf4b15de6f17eb0d0260801c5b600160591b83161561428f577001000000000162e42fefa494f1478fde050260801c5b600160581b8316156142b25770010000000000b17217f7d20cf927c8e94c0260801c5b600160571b8316156142d5577001000000000058b90bfbe8f71cb4e4b33d0260801c5b600160561b8316156142f857700100000000002c5c85fdf477b662b269450260801c5b600160551b83161561431b5770010000000000162e42fefa3ae53369388c0260801c5b600160541b83161561433e57700100000000000b17217f7d1d351a389d400260801c5b600160531b8316156143615770010000000000058b90bfbe8e8b2d3d4ede0260801c5b600160521b831615614384577001000000000002c5c85fdf4741bea6e77e0260801c5b600160511b8316156143a757700100000000000162e42fefa39fe95583c20260801c5b600160501b8316156143ca577001000000000000b17217f7d1cfb72b45e10260801c5b69800000000000000000008316156143f357700100000000000058b90bfbe8e7cc35c3f00260801c5b694000000000000000000083161561441c5770010000000000002c5c85fdf473e242ea380260801c5b6920000000000000000000831615614445577001000000000000162e42fefa39f02b772c0260801c5b691000000000000000000083161561446e5770010000000000000b17217f7d1cf7d83c1a0260801c5b6908000000000000000000831615614497577001000000000000058b90bfbe8e7bdcbe2e0260801c5b69040000000000000000008316156144c057700100000000000002c5c85fdf473dea871f0260801c5b69020000000000000000008316156144e95770010000000000000162e42fefa39ef44d910260801c5b690100000000000000000083161561451257700100000000000000b17217f7d1cf79e9490260801c5b6880000000000000000083161561453a5770010000000000000058b90bfbe8e7bce5440260801c5b68400000000000000000831615614562577001000000000000002c5c85fdf473de6eca0260801c5b6820000000000000000083161561458a57700100000000000000162e42fefa39ef366f0260801c5b681000000000000000008316156145b2577001000000000000000b17217f7d1cf79afa0260801c5b680800000000000000008316156145da57700100000000000000058b90bfbe8e7bcd6d0260801c5b680400000000000000008316156146025770010000000000000002c5c85fdf473de6b20260801c5b6802000000000000000083161561462a577001000000000000000162e42fefa39ef3580260801c5b600160401b83161561464d5770010000000000000000b17217f7d1cf79ab0260801c5b678000000000000000831615614674577001000000000000000058b90bfbe8e7bcd50260801c5b67400000000000000083161561469b57700100000000000000002c5c85fdf473de6a0260801c5b6720000000000000008316156146c25770010000000000000000162e42fefa39ef340260801c5b6710000000000000008316156146e957700100000000000000000b17217f7d1cf7990260801c5b6708000000000000008316156147105770010000000000000000058b90bfbe8e7bcc0260801c5b670400000000000000831615614737577001000000000000000002c5c85fdf473de50260801c5b67020000000000000083161561475e57700100000000000000000162e42fefa39ef20260801c5b670100000000000000831615614785577001000000000000000000b17217f7d1cf780260801c5b66800000000000008316156147ab57700100000000000000000058b90bfbe8e7bb0260801c5b66400000000000008316156147d15770010000000000000000002c5c85fdf473dd0260801c5b66200000000000008316156147f7577001000000000000000000162e42fefa39ee0260801c5b661000000000000083161561481d5770010000000000000000000b17217f7d1cf60260801c5b6608000000000000831615614843577001000000000000000000058b90bfbe8e7a0260801c5b660400000000000083161561486957700100000000000000000002c5c85fdf473c0260801c5b660200000000000083161561488f5770010000000000000000000162e42fefa39d0260801c5b66010000000000008316156148b557700100000000000000000000b17217f7d1ce0260801c5b658000000000008316156148da5770010000000000000000000058b90bfbe8e60260801c5b654000000000008316156148ff577001000000000000000000002c5c85fdf4720260801c5b6520000000000083161561492457700100000000000000000000162e42fefa380260801c5b65100000000000831615614949577001000000000000000000000b17217f7d1b0260801c5b6508000000000083161561496e57700100000000000000000000058b90bfbe8d0260801c5b650400000000008316156149935770010000000000000000000002c5c85fdf460260801c5b650200000000008316156149b8577001000000000000000000000162e42fefa20260801c5b600160281b8316156149db5770010000000000000000000000b17217f7d00260801c5b6480000000008316156149ff577001000000000000000000000058b90bfbe70260801c5b644000000000831615614a2357700100000000000000000000002c5c85fdf30260801c5b642000000000831615614a475770010000000000000000000000162e42fef90260801c5b641000000000831615614a6b57700100000000000000000000000b17217f7c0260801c5b640800000000831615614a8f5770010000000000000000000000058b90bfbd0260801c5b640400000000831615614ab3577001000000000000000000000002c5c85fde0260801c5b640200000000831615614ad757700100000000000000000000000162e42fee0260801c5b640100000000831615614afb577001000000000000000000000000b17217f60260801c5b6380000000831615614b1e57700100000000000000000000000058b90bfa0260801c5b6340000000831615614b415770010000000000000000000000002c5c85fc0260801c5b6320000000831615614b64577001000000000000000000000000162e42fd0260801c5b6310000000831615614b875770010000000000000000000000000b17217e0260801c5b6308000000831615614baa577001000000000000000000000000058b90be0260801c5b6304000000831615614bcd57700100000000000000000000000002c5c85e0260801c5b6302000000831615614bf05770010000000000000000000000000162e42e0260801c5b6301000000831615614c1357700100000000000000000000000000b172160260801c5b62800000831615614c355770010000000000000000000000000058b90a0260801c5b62400000831615614c57577001000000000000000000000000002c5c840260801c5b62200000831615614c7957700100000000000000000000000000162e410260801c5b62100000831615614c9b577001000000000000000000000000000b17200260801c5b62080000831615614cbd57700100000000000000000000000000058b8f0260801c5b62040000831615614cdf5770010000000000000000000000000002c5c70260801c5b62020000831615614d01577001000000000000000000000000000162e30260801c5b62010000831615614d235770010000000000000000000000000000b1710260801c5b618000831615614d44577001000000000000000000000000000058b80260801c5b614000831615614d6557700100000000000000000000000000002c5b0260801c5b612000831615614d865770010000000000000000000000000000162d0260801c5b611000831615614da757700100000000000000000000000000000b160260801c5b610800831615614dc85770010000000000000000000000000000058a0260801c5b610400831615614de9577001000000000000000000000000000002c40260801c5b610200831615614e0a577001000000000000000000000000000001610260801c5b610100831615614e2b577001000000000000000000000000000000b00260801c5b6080831615614e4b577001000000000000000000000000000000570260801c5b6040831615614e6b5770010000000000000000000000000000002b0260801c5b6020831615614e8b577001000000000000000000000000000000150260801c5b6010831615614eab5770010000000000000000000000000000000a0260801c5b6008831615614ecb577001000000000000000000000000000000040260801c5b6004831615614eeb577001000000000000000000000000000000010260801c5b84614f0c57600f81901c6001600160701b03169050613fff82019150614f3a565b613ffe8211614f3157600f81901c6001600160701b0316905081613fff039150614f3a565b5f91613fee19011c5b60709190911b1760801b95945050505050565b5f6001607f1b608083901c1115614f6a575061ffff60ef1b919050565b6001600160801b03198216613fff60f01b03614f8757505f919050565b617fff60f083901c811690819003614fa0575090919050565b6001600160701b03608084901c165f829003614fbf5760019150614fc6565b600160701b175b805f03614fde57506001600160f01b03199392505050565b5f61406f81613fff85106150025750600f9290921b915f9150613ffe198401615040565b60019250600160701b84106150245784613ffe039050600f84901b9350615040565b5f61502e85613b63565b607f8190039590951b9461406d039150505b836001607f1b03615075578215615055576001015b5f61505f82613b63565b60700390508082901b91508083039250506150c0565b5f83615081575f615084565b60015b60ff1690505b600160701b8210156150be5793800260ff81901c607f81019190911c945f19939093019260019290921b908218019061508a565b505b806001600160701b0316607083901b846150da575f6150e0565b6001607f1b5b6001600160801b0316171760801b979650505050505050565b604051806060016040528061510c615120565b815260200160608152602001606081525090565b604080516101a0810182525f80825260208201819052918101829052606081018290526080810182905260a0810182905260c0810182905260e0810182905261010081018290526101208101829052610140810182905261016081018290529061018082015290565b803564ffffffffff811681146131b6575f5ffd5b6001600160a01b03811681146151b1575f5ffd5b50565b803561ffff811681146131b6575f5ffd5b803560ff811681146131b6575f5ffd5b634e487b7160e01b5f52604160045260245ffd5b5f82601f8301126151f8575f5ffd5b813567ffffffffffffffff811115615212576152126151d5565b604051601f8201601f19908116603f0116810167ffffffffffffffff81118282101715615241576152416151d5565b604052818152838201602001851015615258575f5ffd5b816020850160208301375f918101602001919091529392505050565b5f5f5f5f5f5f5f5f610100898b03121561528c575f5ffd5b61529589615189565b97506152a360208a01615189565b965060408901356152b38161519d565b9550606089013594506152c860808a016151b4565b93506152d660a08a016151c5565b925060c08901356152e68161519d565b915060e089013567ffffffffffffffff811115615301575f5ffd5b61530d8b828c016151e9565b9150509295985092959890939650565b5f6020828403121561532d575f5ffd5b5035919050565b634e487b7160e01b5f52602160045260245ffd5b6005811061536457634e487b7160e01b5f52602160045260245ffd5b9052565b80516001600160801b03168252602081015161538d602084018264ffffffffff169052565b5060408101516153a6604084018264ffffffffff169052565b5060608101516153bf606084018264ffffffffff169052565b5060808101516153d8608084018264ffffffffff169052565b5060a08101516153f360a08401826001600160801b03169052565b5060c081015161540e60c08401826001600160a01b03169052565b5060e081015161542460e084018261ffff169052565b5061010081015161010083015261012081015161544761012084018260ff169052565b506101408101516154646101408401826001600160a01b03169052565b50610160810151610160830152610180810151615485610180840182615348565b505050565b5f8151808452602084019350602083015f5b828110156154ba57815186526020958601959091019060010161549c565b5093949350505050565b602081526154d6602082018351615368565b5f60208301516101e06101c08401526154f361020084018261548a565b90506040840151601f19848303016101e0850152613c5f828261548a565b5f5f60408385031215615522575f5ffd5b82359150615532602084016151c5565b90509250929050565b5f6020828403121561554b575f5ffd5b8135610ded8161519d565b5f5f5f60608486031215615568575f5ffd5b83359250615578602085016151c5565b929592945050506040919091013590565b80151581146151b1575f5ffd5b5f5f5f606084860312156155a8575f5ffd5b8335925060208401356155ba81615589565b9150604084013567ffffffffffffffff8111156155d5575f5ffd5b6155e1868287016151e9565b9150509250925092565b5f5f5f5f608085870312156155fe575f5ffd5b8435935061560e602086016151c5565b93969395505050506040820135916060013590565b5f60208284031215615633575f5ffd5b610d78826151b4565b602080825282518282018190525f918401906040840190835b81811015615673578351835260209384019390920191600101615655565b509095945050505050565b5f5f6040838503121561568f575f5ffd5b50508035926020909101359150565b6101a08101610d7b8284615368565b5f5f604083850312156156be575f5ffd5b8235915060208301356001600160801b03811681146156db575f5ffd5b809150509250929050565b5f5f604083850312156156f7575f5ffd5b82356157028161519d565b915060208301356156db81615589565b5f60208284031215615722575f5ffd5b5051919050565b5f60208284031215615739575f5ffd5b8151610ded81615589565b5f81518084528060208401602086015e5f602082860101526020601f19601f83011685010191505092915050565b6001600160a01b03831681526040602082018190525f90610dea90830184615744565b64ffffffffff8681168252851660208201526001600160a01b038416604082015260ff8316606082015260a0608082018190525f906157d690830184615744565b979650505050505050565b634e487b7160e01b5f52601160045260245ffd5b80820180821115610d7b57610d7b6157e1565b6020808252600e908201526d13585c9ad95d08195e1c1a5c995960921b604082015260600190565b60208101610d7b8284615348565b8215158152604060208201525f610dea6040830184615744565b60208082526015908201527413585c9ad95d08191bd95cc81b9bdd08195e1a5cdd605a1b604082015260600190565b6020808252601190820152704d61726b6574206e6f742061637469766560781b604082015260600190565b6020808252600f908201526e496e76616c6964206f7574636f6d6560881b604082015260600190565b81810381811115610d7b57610d7b6157e1565b8082028115828204841417610d7b57610d7b6157e1565b634e487b7160e01b5f52601260045260245ffd5b5f8261593357634e487b7160e01b5f52601260045260245ffd5b500490565b5f60208284031215615948575f5ffd5b8151610ded8161519d565b634e487b7160e01b5f52603260045260245ffd5b5f60ff821660ff810361597c5761597c6157e1565b60010192915050565b634e487b7160e01b5f52600160045260245ffdfea26469706673582212203822f7fc5b55912281d3be4ccfb2b71281d8dac5d6a35ae0fc27b3bf4156906664736f6c634300081c0033","linkReferences":{}},"methodIdentifiers":{"ALPHA()":"b0bb1c5a","LARGE_NUMBER()":"d900c887","MAX_BPS()":"fd967f47","RESOLUTION_PERIOD()":"50f90594","authority()":"bf7e214f","buy(uint256,uint8,uint256,uint256)":"9b29429d","createMarket(uint40,uint40,address,uint256,uint16,uint8,address,string)":"06394c2f","getCollateralTokenAllowed(address)":"583bc2b5","getExtendedMarket(uint256)":"2ed00bef","getInsuranceAddress()":"04122aa8","getMarket(uint256)":"eb44fdd3","getMarketCollateral(uint256)":"1783af9a","getMarketOutcomeTokenAmount(uint256,uint8)":"993fca77","getMarketOutcomeTokenIndex(uint256,uint8)":"35f6f689","getMarketResolver(address)":"41a976f6","getMinimumInitialCollateral()":"cdb2ffdf","getOutcomePurchaseCost(uint256,uint8,uint256)":"42a5aca4","getOutcomeSaleReturn(uint256,uint8,uint256)":"509e70bb","getPrice(uint256,uint8)":"c0a027f4","getPrices(uint256)":"91492956","getProtocolFee()":"a5a41031","getRedeemableAmount(uint256,uint256)":"ddcd45b2","isConsumingScheduledOp()":"8fb36037","isMarketResolved(uint256)":"53ac55f5","redeem(uint256)":"db006a75","redeemDefaultedMarket(uint256)":"a2d7fadb","resolveMarket(uint256,uint128)":"f09f6fa0","reviewMarket(uint256,bool,string)":"64e7c986","sell(uint256,uint8,uint256,uint256)":"66f390e5","setAuthority(address)":"7a9e5e4b","setCollateralTokenAllowed(address,bool)":"f59a40f5","setInsuranceAddress(address)":"bb208f55","setMarketResolver(address,bool)":"f8eef64f","setMarketResolverFee(uint16)":"7add0a1e","setMinimumInitialCollateral(uint256)":"c2b212d4","setProtocolFee(uint256)":"787dce3d","setXOMarketsAddress(address)":"9dab21c4","xOutcomes()":"6bed5256","xoMarkets()":"b687c5c3"},"id":63}