{"abi":[{"type":"constructor","inputs":[],"stateMutability":"nonpayable"},{"type":"function","name":"DEFAULT_ADMIN_ROLE","inputs":[],"outputs":[{"name":"","type":"bytes32","internalType":"bytes32"}],"stateMutability":"view"},{"type":"function","name":"approve","inputs":[{"name":"to","type":"address","internalType":"address"},{"name":"tokenId","type":"uint256","internalType":"uint256"}],"outputs":[],"stateMutability":"nonpayable"},{"type":"function","name":"balanceOf","inputs":[{"name":"owner","type":"address","internalType":"address"}],"outputs":[{"name":"","type":"uint256","internalType":"uint256"}],"stateMutability":"view"},{"type":"function","name":"getApproved","inputs":[{"name":"tokenId","type":"uint256","internalType":"uint256"}],"outputs":[{"name":"","type":"address","internalType":"address"}],"stateMutability":"view"},{"type":"function","name":"getRoleAdmin","inputs":[{"name":"role","type":"bytes32","internalType":"bytes32"}],"outputs":[{"name":"","type":"bytes32","internalType":"bytes32"}],"stateMutability":"view"},{"type":"function","name":"grantRole","inputs":[{"name":"role","type":"bytes32","internalType":"bytes32"},{"name":"account","type":"address","internalType":"address"}],"outputs":[],"stateMutability":"nonpayable"},{"type":"function","name":"hasRole","inputs":[{"name":"role","type":"bytes32","internalType":"bytes32"},{"name":"account","type":"address","internalType":"address"}],"outputs":[{"name":"","type":"bool","internalType":"bool"}],"stateMutability":"view"},{"type":"function","name":"isApprovedForAll","inputs":[{"name":"owner","type":"address","internalType":"address"},{"name":"operator","type":"address","internalType":"address"}],"outputs":[{"name":"","type":"bool","internalType":"bool"}],"stateMutability":"view"},{"type":"function","name":"mint","inputs":[{"name":"to","type":"address","internalType":"address"},{"name":"uri","type":"string","internalType":"string"}],"outputs":[{"name":"","type":"uint256","internalType":"uint256"}],"stateMutability":"nonpayable"},{"type":"function","name":"name","inputs":[],"outputs":[{"name":"","type":"string","internalType":"string"}],"stateMutability":"view"},{"type":"function","name":"ownerOf","inputs":[{"name":"tokenId","type":"uint256","internalType":"uint256"}],"outputs":[{"name":"","type":"address","internalType":"address"}],"stateMutability":"view"},{"type":"function","name":"renounceRole","inputs":[{"name":"role","type":"bytes32","internalType":"bytes32"},{"name":"callerConfirmation","type":"address","internalType":"address"}],"outputs":[],"stateMutability":"nonpayable"},{"type":"function","name":"revokeRole","inputs":[{"name":"role","type":"bytes32","internalType":"bytes32"},{"name":"account","type":"address","internalType":"address"}],"outputs":[],"stateMutability":"nonpayable"},{"type":"function","name":"safeTransferFrom","inputs":[{"name":"from","type":"address","internalType":"address"},{"name":"to","type":"address","internalType":"address"},{"name":"tokenId","type":"uint256","internalType":"uint256"}],"outputs":[],"stateMutability":"nonpayable"},{"type":"function","name":"safeTransferFrom","inputs":[{"name":"from","type":"address","internalType":"address"},{"name":"to","type":"address","internalType":"address"},{"name":"tokenId","type":"uint256","internalType":"uint256"},{"name":"data","type":"bytes","internalType":"bytes"}],"outputs":[],"stateMutability":"nonpayable"},{"type":"function","name":"setApprovalForAll","inputs":[{"name":"operator","type":"address","internalType":"address"},{"name":"approved","type":"bool","internalType":"bool"}],"outputs":[],"stateMutability":"nonpayable"},{"type":"function","name":"supportsInterface","inputs":[{"name":"interfaceId","type":"bytes4","internalType":"bytes4"}],"outputs":[{"name":"","type":"bool","internalType":"bool"}],"stateMutability":"view"},{"type":"function","name":"symbol","inputs":[],"outputs":[{"name":"","type":"string","internalType":"string"}],"stateMutability":"view"},{"type":"function","name":"tokenByIndex","inputs":[{"name":"index","type":"uint256","internalType":"uint256"}],"outputs":[{"name":"","type":"uint256","internalType":"uint256"}],"stateMutability":"view"},{"type":"function","name":"tokenOfOwnerByIndex","inputs":[{"name":"owner","type":"address","internalType":"address"},{"name":"index","type":"uint256","internalType":"uint256"}],"outputs":[{"name":"","type":"uint256","internalType":"uint256"}],"stateMutability":"view"},{"type":"function","name":"tokenURI","inputs":[{"name":"tokenId","type":"uint256","internalType":"uint256"}],"outputs":[{"name":"","type":"string","internalType":"string"}],"stateMutability":"view"},{"type":"function","name":"totalSupply","inputs":[],"outputs":[{"name":"","type":"uint256","internalType":"uint256"}],"stateMutability":"view"},{"type":"function","name":"transferFrom","inputs":[{"name":"from","type":"address","internalType":"address"},{"name":"to","type":"address","internalType":"address"},{"name":"tokenId","type":"uint256","internalType":"uint256"}],"outputs":[],"stateMutability":"nonpayable"},{"type":"event","name":"Approval","inputs":[{"name":"owner","type":"address","indexed":true,"internalType":"address"},{"name":"approved","type":"address","indexed":true,"internalType":"address"},{"name":"tokenId","type":"uint256","indexed":true,"internalType":"uint256"}],"anonymous":false},{"type":"event","name":"ApprovalForAll","inputs":[{"name":"owner","type":"address","indexed":true,"internalType":"address"},{"name":"operator","type":"address","indexed":true,"internalType":"address"},{"name":"approved","type":"bool","indexed":false,"internalType":"bool"}],"anonymous":false},{"type":"event","name":"RoleAdminChanged","inputs":[{"name":"role","type":"bytes32","indexed":true,"internalType":"bytes32"},{"name":"previousAdminRole","type":"bytes32","indexed":true,"internalType":"bytes32"},{"name":"newAdminRole","type":"bytes32","indexed":true,"internalType":"bytes32"}],"anonymous":false},{"type":"event","name":"RoleGranted","inputs":[{"name":"role","type":"bytes32","indexed":true,"internalType":"bytes32"},{"name":"account","type":"address","indexed":true,"internalType":"address"},{"name":"sender","type":"address","indexed":true,"internalType":"address"}],"anonymous":false},{"type":"event","name":"RoleRevoked","inputs":[{"name":"role","type":"bytes32","indexed":true,"internalType":"bytes32"},{"name":"account","type":"address","indexed":true,"internalType":"address"},{"name":"sender","type":"address","indexed":true,"internalType":"address"}],"anonymous":false},{"type":"event","name":"Transfer","inputs":[{"name":"from","type":"address","indexed":true,"internalType":"address"},{"name":"to","type":"address","indexed":true,"internalType":"address"},{"name":"tokenId","type":"uint256","indexed":true,"internalType":"uint256"}],"anonymous":false},{"type":"error","name":"AccessControlBadConfirmation","inputs":[]},{"type":"error","name":"AccessControlUnauthorizedAccount","inputs":[{"name":"account","type":"address","internalType":"address"},{"name":"neededRole","type":"bytes32","internalType":"bytes32"}]},{"type":"error","name":"ERC721EnumerableForbiddenBatchMint","inputs":[]},{"type":"error","name":"ERC721IncorrectOwner","inputs":[{"name":"sender","type":"address","internalType":"address"},{"name":"tokenId","type":"uint256","internalType":"uint256"},{"name":"owner","type":"address","internalType":"address"}]},{"type":"error","name":"ERC721InsufficientApproval","inputs":[{"name":"operator","type":"address","internalType":"address"},{"name":"tokenId","type":"uint256","internalType":"uint256"}]},{"type":"error","name":"ERC721InvalidApprover","inputs":[{"name":"approver","type":"address","internalType":"address"}]},{"type":"error","name":"ERC721InvalidOperator","inputs":[{"name":"operator","type":"address","internalType":"address"}]},{"type":"error","name":"ERC721InvalidOwner","inputs":[{"name":"owner","type":"address","internalType":"address"}]},{"type":"error","name":"ERC721InvalidReceiver","inputs":[{"name":"receiver","type":"address","internalType":"address"}]},{"type":"error","name":"ERC721InvalidSender","inputs":[{"name":"sender","type":"address","internalType":"address"}]},{"type":"error","name":"ERC721NonexistentToken","inputs":[{"name":"tokenId","type":"uint256","internalType":"uint256"}]},{"type":"error","name":"ERC721OutOfBoundsIndex","inputs":[{"name":"owner","type":"address","internalType":"address"},{"name":"index","type":"uint256","internalType":"uint256"}]}],"bytecode":{"object":"0x60806040526001600b55348015610014575f5ffd5b506040518060400160405280600a815260200169584f204d61726b65747360b01b81525060405180604001604052806003815260200162584f4d60e81b815250815f908161006291906101c9565b50600161006f82826101c9565b5061007e91505f905033610084565b50610283565b5f828152600a602090815260408083206001600160a01b038516845290915281205460ff16610128575f838152600a602090815260408083206001600160a01b03861684529091529020805460ff191660011790556100e03390565b6001600160a01b0316826001600160a01b0316847f2f8788117e7eff1d82e926ec794901d17c78024a50270940304540a733656f0d60405160405180910390a450600161012b565b505f5b92915050565b634e487b7160e01b5f52604160045260245ffd5b600181811c9082168061015957607f821691505b60208210810361017757634e487b7160e01b5f52602260045260245ffd5b50919050565b601f8211156101c457805f5260205f20601f840160051c810160208510156101a25750805b601f840160051c820191505b818110156101c1575f81556001016101ae565b50505b505050565b81516001600160401b038111156101e2576101e2610131565b6101f6816101f08454610145565b8461017d565b6020601f821160018114610228575f83156102115750848201515b5f19600385901b1c1916600184901b1784556101c1565b5f84815260208120601f198516915b828110156102575787850151825560209485019460019092019101610237565b508482101561027457868401515f19600387901b60f8161c191681555b50505050600190811b01905550565b6117a3806102905f395ff3fe608060405234801561000f575f5ffd5b5060043610610148575f3560e01c80634f6ccce7116100bf578063a22cb46511610079578063a22cb465146102b7578063b88d4fde146102ca578063c87b56dd146102dd578063d0def521146102f0578063d547741f14610303578063e985e9c514610316575f5ffd5b80634f6ccce71461025c5780636352211e1461026f57806370a082311461028257806391d148541461029557806395d89b41146102a8578063a217fddf146102b0575f5ffd5b806323b872dd1161011057806323b872dd146101db578063248a9ca3146101ee5780632f2ff15d146102105780632f745c591461022357806336568abe1461023657806342842e0e14610249575f5ffd5b806301ffc9a71461014c57806306fdde0314610174578063081812fc14610189578063095ea7b3146101b457806318160ddd146101c9575b5f5ffd5b61015f61015a36600461125a565b610329565b60405190151581526020015b60405180910390f35b61017c610339565b60405161016b91906112a3565b61019c6101973660046112b5565b6103c8565b6040516001600160a01b03909116815260200161016b565b6101c76101c23660046112e7565b6103ef565b005b6008545b60405190815260200161016b565b6101c76101e936600461130f565b6103fe565b6101cd6101fc3660046112b5565b5f908152600a602052604090206001015490565b6101c761021e366004611349565b61048c565b6101cd6102313660046112e7565b6104b0565b6101c7610244366004611349565b610513565b6101c761025736600461130f565b61054b565b6101cd61026a3660046112b5565b610565565b61019c61027d3660046112b5565b6105ba565b6101cd610290366004611373565b6105c4565b61015f6102a3366004611349565b610609565b61017c610633565b6101cd5f81565b6101c76102c536600461138c565b610642565b6101c76102d8366004611450565b61064d565b61017c6102eb3660046112b5565b610665565b6101cd6102fe3660046114c7565b6106d6565b6101c7610311366004611349565b610718565b61015f610324366004611525565b61073c565b5f61033382610769565b92915050565b60605f80546103479061154d565b80601f01602080910402602001604051908101604052809291908181526020018280546103739061154d565b80156103be5780601f10610395576101008083540402835291602001916103be565b820191905f5260205f20905b8154815290600101906020018083116103a157829003601f168201915b5050505050905090565b5f6103d28261078d565b505f828152600460205260409020546001600160a01b0316610333565b6103fa8282336107c5565b5050565b6001600160a01b03821661042c57604051633250574960e11b81525f60048201526024015b60405180910390fd5b5f6104388383336107d2565b9050836001600160a01b0316816001600160a01b031614610486576040516364283d7b60e01b81526001600160a01b0380861660048301526024820184905282166044820152606401610423565b50505050565b5f828152600a60205260409020600101546104a6816108a5565b61048683836108b2565b5f6104ba836105c4565b82106104eb5760405163295f44f760e21b81526001600160a01b038416600482015260248101839052604401610423565b506001600160a01b03919091165f908152600660209081526040808320938352929052205490565b6001600160a01b038116331461053c5760405163334bd91960e11b815260040160405180910390fd5b6105468282610943565b505050565b61054683838360405180602001604052805f81525061064d565b5f61056f60085490565b82106105975760405163295f44f760e21b81525f600482015260248101839052604401610423565b600882815481106105aa576105aa611585565b905f5260205f2001549050919050565b5f6103338261078d565b5f6001600160a01b0382166105ee576040516322718ad960e21b81525f6004820152602401610423565b506001600160a01b03165f9081526003602052604090205490565b5f918252600a602090815260408084206001600160a01b0393909316845291905290205460ff1690565b6060600180546103479061154d565b6103fa3383836109ae565b6106588484846103fe565b6104863385858585610a4c565b60606106708261078d565b505f61068660408051602081019091525f815290565b90505f8151116106a45760405180602001604052805f8152506106cf565b806106ae84610b74565b6040516020016106bf9291906115b0565b6040516020818303038152906040525b9392505050565b600b80545f91829190826106e9836115d8565b9190505590506106f98482610c04565b5f818152600c602052604090206107108482611634565b509392505050565b5f828152600a6020526040902060010154610732816108a5565b6104868383610943565b6001600160a01b039182165f90815260056020908152604080832093909416825291909152205460ff1690565b5f6001600160e01b03198216637965db0b60e01b1480610333575061033382610c1d565b5f818152600260205260408120546001600160a01b03168061033357604051637e27328960e01b815260048101849052602401610423565b6105468383836001610c41565b5f5f6107df858585610d45565b90506001600160a01b03811661083b5761083684600880545f838152600960205260408120829055600182018355919091527ff3f7a9fe364faab93b216da50a3214154f22a0a2b415b23a84c8169e8b636ee30155565b61085e565b846001600160a01b0316816001600160a01b03161461085e5761085e8185610e37565b6001600160a01b03851661087a5761087584610eb4565b61089d565b846001600160a01b0316816001600160a01b03161461089d5761089d8585610f5b565b949350505050565b6108af8133610fa9565b50565b5f6108bd8383610609565b61093c575f838152600a602090815260408083206001600160a01b03861684529091529020805460ff191660011790556108f43390565b6001600160a01b0316826001600160a01b0316847f2f8788117e7eff1d82e926ec794901d17c78024a50270940304540a733656f0d60405160405180910390a4506001610333565b505f610333565b5f61094e8383610609565b1561093c575f838152600a602090815260408083206001600160a01b0386168085529252808320805460ff1916905551339286917ff6391f5c32d9c69d2a47ea670b442974b53935d1edc7fd64eb21e047a839171b9190a4506001610333565b6001600160a01b0382166109e057604051630b61174360e31b81526001600160a01b0383166004820152602401610423565b6001600160a01b038381165f81815260056020908152604080832094871680845294825291829020805460ff191686151590811790915591519182527f17307eab39ab6107e8899845ad3d59bd9653f200f220920489ca2b5937696c31910160405180910390a3505050565b6001600160a01b0383163b15610b6d57604051630a85bd0160e11b81526001600160a01b0384169063150b7a0290610a8e9088908890879087906004016116ef565b6020604051808303815f875af1925050508015610ac8575060408051601f3d908101601f19168201909252610ac59181019061172b565b60015b610b2f573d808015610af5576040519150601f19603f3d011682016040523d82523d5f602084013e610afa565b606091505b5080515f03610b2757604051633250574960e11b81526001600160a01b0385166004820152602401610423565b805181602001fd5b6001600160e01b03198116630a85bd0160e11b14610b6b57604051633250574960e11b81526001600160a01b0385166004820152602401610423565b505b5050505050565b60605f610b8083610fe2565b60010190505f8167ffffffffffffffff811115610b9f57610b9f6113c5565b6040519080825280601f01601f191660200182016040528015610bc9576020820181803683370190505b5090508181016020015b5f19016f181899199a1a9b1b9c1cb0b131b232b360811b600a86061a8153600a8504945084610bd357509392505050565b6103fa828260405180602001604052805f8152506110b9565b5f6001600160e01b0319821663780e9d6360e01b14806103335750610333826110d0565b8080610c5557506001600160a01b03821615155b15610d16575f610c648461078d565b90506001600160a01b03831615801590610c905750826001600160a01b0316816001600160a01b031614155b8015610ca35750610ca1818461073c565b155b15610ccc5760405163a9fbf51f60e01b81526001600160a01b0384166004820152602401610423565b8115610d145783856001600160a01b0316826001600160a01b03167f8c5be1e5ebec7d5bd14f71427d1e84f3dd0314c0f7b2291e5b200ac8c7c3b92560405160405180910390a45b505b50505f90815260046020526040902080546001600160a01b0319166001600160a01b0392909216919091179055565b5f828152600260205260408120546001600160a01b0390811690831615610d7157610d7181848661111f565b6001600160a01b03811615610dab57610d8c5f855f5f610c41565b6001600160a01b0381165f90815260036020526040902080545f190190555b6001600160a01b03851615610dd9576001600160a01b0385165f908152600360205260409020805460010190555b5f8481526002602052604080822080546001600160a01b0319166001600160a01b0389811691821790925591518793918516917fddf252ad1be2c89b69c2b068fc378daa952ba7f163c4a11628f55a4df523b3ef91a4949350505050565b5f610e41836105c4565b5f838152600760209081526040808320546001600160a01b0388168452600690925290912091925090818314610e96575f83815260208281526040808320548584528184208190558352600790915290208290555b5f938452600760209081526040808620869055938552525081205550565b6008545f90610ec590600190611746565b5f8381526009602052604081205460088054939450909284908110610eec57610eec611585565b905f5260205f20015490508060088381548110610f0b57610f0b611585565b5f918252602080832090910192909255828152600990915260408082208490558582528120556008805480610f4257610f42611759565b600190038181905f5260205f20015f9055905550505050565b5f6001610f67846105c4565b610f719190611746565b6001600160a01b039093165f908152600660209081526040808320868452825280832085905593825260079052919091209190915550565b610fb38282610609565b6103fa5760405163e2517d3f60e01b81526001600160a01b038216600482015260248101839052604401610423565b5f8072184f03e93ff9f4daa797ed6e38ed64bf6a1f0160401b83106110205772184f03e93ff9f4daa797ed6e38ed64bf6a1f0160401b830492506040015b6d04ee2d6d415b85acef8100000000831061104c576d04ee2d6d415b85acef8100000000830492506020015b662386f26fc10000831061106a57662386f26fc10000830492506010015b6305f5e1008310611082576305f5e100830492506008015b612710831061109657612710830492506004015b606483106110a8576064830492506002015b600a83106103335760010192915050565b6110c38383611183565b610546335f858585610a4c565b5f6001600160e01b031982166380ac58cd60e01b148061110057506001600160e01b03198216635b5e139f60e01b145b8061033357506301ffc9a760e01b6001600160e01b0319831614610333565b61112a8383836111e4565b610546576001600160a01b03831661115857604051637e27328960e01b815260048101829052602401610423565b60405163177e802f60e01b81526001600160a01b038316600482015260248101829052604401610423565b6001600160a01b0382166111ac57604051633250574960e11b81525f6004820152602401610423565b5f6111b883835f6107d2565b90506001600160a01b03811615610546576040516339e3563760e11b81525f6004820152602401610423565b5f6001600160a01b0383161580159061089d5750826001600160a01b0316846001600160a01b0316148061121d575061121d848461073c565b8061089d5750505f908152600460205260409020546001600160a01b03908116911614919050565b6001600160e01b0319811681146108af575f5ffd5b5f6020828403121561126a575f5ffd5b81356106cf81611245565b5f81518084528060208401602086015e5f602082860101526020601f19601f83011685010191505092915050565b602081525f6106cf6020830184611275565b5f602082840312156112c5575f5ffd5b5035919050565b80356001600160a01b03811681146112e2575f5ffd5b919050565b5f5f604083850312156112f8575f5ffd5b611301836112cc565b946020939093013593505050565b5f5f5f60608486031215611321575f5ffd5b61132a846112cc565b9250611338602085016112cc565b929592945050506040919091013590565b5f5f6040838503121561135a575f5ffd5b8235915061136a602084016112cc565b90509250929050565b5f60208284031215611383575f5ffd5b6106cf826112cc565b5f5f6040838503121561139d575f5ffd5b6113a6836112cc565b9150602083013580151581146113ba575f5ffd5b809150509250929050565b634e487b7160e01b5f52604160045260245ffd5b5f5f67ffffffffffffffff8411156113f3576113f36113c5565b50604051601f19601f85018116603f0116810181811067ffffffffffffffff82111715611422576114226113c5565b604052838152905080828401851015611439575f5ffd5b838360208301375f60208583010152509392505050565b5f5f5f5f60808587031215611463575f5ffd5b61146c856112cc565b935061147a602086016112cc565b925060408501359150606085013567ffffffffffffffff81111561149c575f5ffd5b8501601f810187136114ac575f5ffd5b6114bb878235602084016113d9565b91505092959194509250565b5f5f604083850312156114d8575f5ffd5b6114e1836112cc565b9150602083013567ffffffffffffffff8111156114fc575f5ffd5b8301601f8101851361150c575f5ffd5b61151b858235602084016113d9565b9150509250929050565b5f5f60408385031215611536575f5ffd5b61153f836112cc565b915061136a602084016112cc565b600181811c9082168061156157607f821691505b60208210810361157f57634e487b7160e01b5f52602260045260245ffd5b50919050565b634e487b7160e01b5f52603260045260245ffd5b5f81518060208401855e5f93019283525090919050565b5f61089d6115be8386611599565b84611599565b634e487b7160e01b5f52601160045260245ffd5b5f600182016115e9576115e96115c4565b5060010190565b601f82111561054657805f5260205f20601f840160051c810160208510156116155750805b601f840160051c820191505b81811015610b6d575f8155600101611621565b815167ffffffffffffffff81111561164e5761164e6113c5565b6116628161165c845461154d565b846115f0565b6020601f821160018114611694575f831561167d5750848201515b5f19600385901b1c1916600184901b178455610b6d565b5f84815260208120601f198516915b828110156116c357878501518255602094850194600190920191016116a3565b50848210156116e057868401515f19600387901b60f8161c191681555b50505050600190811b01905550565b6001600160a01b03858116825284166020820152604081018390526080606082018190525f9061172190830184611275565b9695505050505050565b5f6020828403121561173b575f5ffd5b81516106cf81611245565b81810381811115610333576103336115c4565b634e487b7160e01b5f52603160045260245ffdfea26469706673582212201e02b06e51207964c8144b9a47939b334c1b0c1103c729df5f499d70d939d2f364736f6c634300081c0033","linkReferences":{}},"methodIdentifiers":{"DEFAULT_ADMIN_ROLE()":"a217fddf","approve(address,uint256)":"095ea7b3","balanceOf(address)":"70a08231","getApproved(uint256)":"081812fc","getRoleAdmin(bytes32)":"248a9ca3","grantRole(bytes32,address)":"2f2ff15d","hasRole(bytes32,address)":"91d14854","isApprovedForAll(address,address)":"e985e9c5","mint(address,string)":"d0def521","name()":"06fdde03","ownerOf(uint256)":"6352211e","renounceRole(bytes32,address)":"36568abe","revokeRole(bytes32,address)":"d547741f","safeTransferFrom(address,address,uint256)":"42842e0e","safeTransferFrom(address,address,uint256,bytes)":"b88d4fde","setApprovalForAll(address,bool)":"a22cb465","supportsInterface(bytes4)":"01ffc9a7","symbol()":"95d89b41","tokenByIndex(uint256)":"4f6ccce7","tokenOfOwnerByIndex(address,uint256)":"2f745c59","tokenURI(uint256)":"c87b56dd","totalSupply()":"18160ddd","transferFrom(address,address,uint256)":"23b872dd"},"id":69}